:020000040800F2
:10000000B002002071130008B5130008FB020008BD
:10001000B5130008B5130008B51300080000000070
:10002000000000000000000000000000B513000800
:10003000B5130008000000007F020008C505000895
:10004000B5130008B5130008B5130008B513000870
:10005000B5130008B5130008B5130008B513000860
:10006000B5130008B5130008B5130008B513000850
:10007000B5130008B5130008B5130008B513000840
:10008000B5130008B5130008B5130008B513000830
:10009000B5130008B5130008B5130008B513000820
:1000A000B5130008B5130008B5130008B513000810
:1000B000B5130008B5130008B5130008B513000800
:1000C000B5130008B5130008B5130008B5130008F0
:1000D000B51300085D080008B5130008B513000843
:1000E000B5130008B5130008B513000800000000A0
:1000F0000000000000000000000000000000000000
:100100000000000000000000B5130008B51300084F
:10011000B5130008B5130008B5130008B51300089F
:10012000B5130008B5130008B5130008B51300088F
:10013000B5130008B5130008B5130008B51300087F
:10014000B5130008B5130008B5130008B51300086F
:10015000000000000000000000000000000000009F
:10016000000000000000000000000000000000008F
:10017000000000000000000000000000000000007F
:10018000000000000000000000000000000000006F
:10019000000000000000000000000000000000005F
:1001A000000000000000000000000000000000004F
:1001B000000000000000000000000000000000003F
:1001C000000000000000000000000000000000002F
:1001D000000000000000000000000000000000001F
:1001E0005FF8E0F110B5054C237833B9044B13B137
:1001F0000448AFF300800123237010BDB00200203B
:1002000000000000309800080C4B43B10C4810B5BA
:100210000C49AFF300800C48036823B910BD0A48AD
:10022000036833B97047094B002BF7D0BDE8104085
:100230001847064B002BF5D0184700BF0000000000
:1002400030980008B4020020B00000200000000038
:10025000EFF3108072B6704780F310887047364A0B
:100260001368012B04D04FF001031360334A106070
:10027000334A116033484FF0805101607047EFF30B
:10028000108272B62C48016891B14FF000010160F4
:100290002A48016829B1EFF3098121E9F00F0068CC
:1002A0000160274909680968B1E8F00F81F30988FE
:1002B00082F310884EF0040E7047214908601F49F0
:1002C0004FF0000008601C494FF0010008601E4814
:1002D0004FF47F01D0F8002041EA02010160194883
:1002E0004FF08051016019480068006800BF80F33A
:1002F000088861B662B6704700BFEFF308801EF051
:10030000040F01D0EFF3098020E9F00F40F804ED6D
:100310001EF0040F02D080F3098801E080F3088802
:1003200000B504F03FFB5DF804EB4EF0040E70479F
:10033000EFF3058070470000480A0020440A0020BF
:10034000400A002004ED00E020ED00E008ED00E0B0
:10035000844641EA000313F0030349D1403A23D312
:100360000B6803604B6843608B688360CB68C36035
:100370000B6903614B6943618B698361CB69C3611D
:100380000B6A03624B6A43628B6A8362CB6AC36205
:100390000B6B03634B6B43638B6B8363CB6BC363ED
:1003A00040304031403ADBD230320BD30B6803602F
:1003B0004B6843608B688360CB68C360103010313A
:1003C000103AF3D20C3205D351F8043B40F8043B09
:1003D000043AF9D2043208D0D2071CBF11F8013B0D
:1003E00000F8013B01D30B8803806046704700BFD3
:1003F000082A13D38B07B1D010F00303AED0C3F19A
:100400000403D21ADB071CBF11F8013B00F8013BC3
:10041000A4D331F8023B20F8023B9FE7043AD9D33A
:10042000013A11F8013B00F8013BF9D20B78037057
:100430004B7843708B7883706046704780B582B08C
:1004400000AF78604FF47A7003F0F6FCFAE780B5FD
:1004500084B000AF78600023FB604FF4FA7003F0C3
:10046000EBFCFAE780B586B004AF0A2303931E23A2
:1004700002934FF400730193124B00930023124A2E
:100480001249134803F094FB78607B68002B02D17B
:100490000F4803F0CDFB192301931E2300934FF463
:1004A000007300220B490C4803F012FC38603B68D3
:1004B000002B02D0386803F0BBFB4FF47A7003F0D6
:1004C000BBFCFAE74C0300203D04000864740008FC
:1004D000CC0200204F0400086C74000880B483B084
:1004E00000AF03463960FB7197F90730002B0BDA38
:1004F0000D49FB7903F00F03043B3A68D2B21201B5
:10050000D2B20B441A7609E0084997F907303A68E5
:10051000D2B21201D2B20B4483F8002300BF0C37D1
:10052000BD4680BC704700BF00ED00E000E100E088
:1005300080B582B000AF78607B68013BB3F1807F0B
:1005400001D301230FE00A4A7B68013B53600F216E
:100550004FF0FF30FFF7C2FF054B00229A60044BBB
:1005600007221A60002318460837BD4680BD00BF29
:1005700010E000E080B500AF00214FF0006000F017
:1005800091FA0B4B1B680B4AA2FB03239B091846ED
:10059000FFF7CEFF00F094FF00F0EEF9064802F0FE
:1005A0003FFA0649064802F051FB00BF80BD00BF7C
:1005B0001C000020D34D621074740008000001205C
:1005C000500A002080B500AF01F09EFC00F0FEFE56
:1005D00001F0BAFC00BF80BD80B483B000AF034619
:1005E000FB71084997F907305B09FA7902F01F029D
:1005F000012000FA02F241F8232000BF0C37BD466B
:1006000080BC704700E100E080B483B000AF0346D7
:10061000FB71094997F907305B09FA7902F01F026B
:10062000012000FA02F2203341F8232000BF0C37EA
:10063000BD4680BC704700BF00E100E080B588B0D7
:1006400000AF786039607B68002B04D128223849DC
:10065000384802F055FA3B68002B04D1292234496E
:10066000354802F04DFA7B68DB6BFB613B681B6829
:10067000FB603B681B7903F00F03DBB2082B02D150
:1006800000233B8209E03B681B7903F00F03DBB2D8
:10069000092B02D14FF480533B823B681B7903F056
:1006A0003003DBB2002B02D100237B8209E03B68E0
:1006B0001B7903F03003DBB2102B02D14FF400534F
:1006C0007B823B681B7923F03F03DBB2002B02D116
:1006D0000023BB8214E03B681B7923F03F03DBB2AD
:1006E000402B03D14FF4C063BB8209E03B681B7908
:1006F00023F03F03DBB2802B02D14FF48063BB8237
:1007000000233B830C23FB82FB691B6807F10C026F
:100710001146184600F09AFBFB691B680121184638
:1007200000F04EFC002318462037BD4680BD00BFB8
:10073000908D00087C7400089074000880B586B025
:1007400000AFF860B9607A60FB68002B04D15122D9
:100750001749184802F0D4F9FB68DB6B7B61BB6872
:10076000102B10D0112B1DD17B6993F90430184642
:10077000FFF74AFF7B691B68002240F225511846AB
:1007800000F03DFC0EE07B6993F904301846FFF75A
:1007900023FF7B691B68012240F22551184600F0B7
:1007A0002EFC00BF002318461837BD4680BD00BF91
:1007B000A08D00087C74000880B584B000AF78601C
:1007C0000B46FB707B68002B04D16D220C490D4851
:1007D00002F096F97B68DB6BFB60FB681B68FA78BC
:1007E00092B29A8000BFFB681B681B889BB203F023
:1007F0004003002BF7D0012318461037BD4680BDBB
:10080000B08D00087C74000880B584B000AF7860BB
:100810007B68002B04D17B220E490F4802F070F94F
:100820007B68DB6BBB604FF0FF33FB60BB681B6812
:100830001B889BB203F02003002B05D0BB681B680C
:100840009B889BB2DBB2FB60FB6818461037BD4645
:1008500080BD00BFBC8D00087C74000880B582B0EC
:1008600000AF1E4B7B6001F04FFB7B681B6840F2C2
:100870002551184600F025FC0346002B0AD0012123
:10088000174804F0BFFD7B681B6840F225511846ED
:1008900000F071FC7B681B6840F22661184600F08E
:1008A00010FC0346002B06D07B681B6840F22661D3
:1008B000184600F060FC7B681B680821184600F0B1
:1008C000E5FB0346012B02D10548FFF79DFF01F030
:1008D0003BFB00BF0837BD4680BD00BF00000020C5
:1008E000C408002080B500AF0121012000F090FA7B
:1008F0000121042000F08CFA01214FF4804000F027
:1009000087FA00BF80BD000080B582B000AF03232E
:10091000BB710423FB714FF48063BB803B1D194600
:10092000084800F0D5F81823FB714FF40073BB8022
:100930003B1D1946034800F0CBF800BF0837BD4601
:1009400080BD00BF0008014080B584B000AF786072
:100950007B6893F90430DBB23B7300237B73002385
:10096000BB730123FB7307F10C03184600F038F842
:1009700000BF1037BD4680BD80B584B000AF134ABC
:100980003B1D92E8030083E80300FFF7ABFFFFF78E
:10099000BBFF0F4BFB604FF4E1337B600D4B0E4A06
:1009A0001A640C4B44333A1D92E8030083E80300B9
:1009B0000748FFF7C9FFFB6840F2031207490548E3
:1009C00004F0D2FC00BF1037BD4680BDA8740008FB
:1009D00000000020C40800207C8D0008A0740008DE
:1009E00080B487B000AF786000237B6100233B6157
:1009F0000F23FB607B68DB78002B3AD0274BDB684A
:100A0000DB431B0A03F007037B617B69C3F104032B
:100A10003B61FA687B6922FA03F3FB607B685B78D1
:100A20001A463B6902FA03F37B617B689B781A469E
:100A3000FB6813407A6913437B617B691B017B610F
:100A4000174A7B681B787969C9B213440A4683F850
:100A50000023134A7B681B785B09DBB218467B686E
:100A60001B7803F01F03012101FA03F342F8203041
:100A70000FE00B497B681B785B09DBB218467B688B
:100A80001B7803F01F0301229A4000F1200341F874
:100A9000232000BF1C37BD4680BC704700ED00E03E
:100AA00000E100E080B483B000AF786039600749AE
:100AB0003B6823F0604323F07F037A6813438B6025
:100AC00000BF0C37BD4680BC704700BF00ED00E0A2
:100AD00080B489B000AF786039600023FB610023E7
:100AE0003B610023BB610023FB6000237B6100238B
:100AF000BB603B68DB7803F00F03FB613B68DB788E
:100B000003F01003002B05D03B689B781A46FB6965
:100B10001343FB613B681B88DBB2002B44D07B682E
:100B20001B687B610023BB6138E00122BB6902FACC
:100B300003F3FB603B681B881A46FB6813403B616C
:100B40003A69FB689A4226D1BB699B00FB600F2281
:100B5000FB6802FA03F3BB60BB68DB437A691340AE
:100B60007B61FA69FB6802FA03F37A6913437B61DC
:100B70003B68DB78282B05D10122BB699A407B6852
:100B80005A6108E03B68DB78482B04D10122BB693D
:100B90009A407B681A61BB690133BB61BB69072B53
:100BA000C3D97B687A691A603B681B88FF2B46D9DA
:100BB0007B685B687B610023BB613AE0BB690833FB
:100BC000012202FA03F3FB603B681B881A46FB68AC
:100BD00013403B613A69FB689A4227D1BB699B008D
:100BE000FB600F22FB6802FA03F3BB60BB68DB43C8
:100BF0007A6913407B61FA69FB6802FA03F37A6948
:100C000013437B613B68DB78282B05D1BB69083334
:100C100001229A407B685A613B68DB78482B05D1FA
:100C2000BB69083301229A407B681A61BB690133B2
:100C3000BB61BB69072BC1D97B687A695A6000BF69
:100C40002437BD4680BC704780B48BB000AF78605D
:100C500000233B6200237B620023FB610023BB6116
:100C600000237B6100233B610023FB600023BB600A
:100C7000614B5B6803F00C033B623B6A042B07D0BB
:100C8000082B09D0002B5DD17B685C4A1A605DE0BF
:100C90007B685B4A1A6059E0574B5B6803F470133A
:100CA0007B62554B5B6803F48033FB617B6A9B0C72
:100CB0007B627B6A0D2B03D07B6A02337B6201E08F
:100CC00006237B62FB69002B06D17B6A4D4A02FB3F
:100CD00003F27B681A6039E0474BDB6A03F4803328
:100CE0007B61454BDB6A03F00F0301333B617B699A
:100CF000002B09D1424A3B69B2FBF3F37A6A02FB4B
:100D000003F27B681A6021E03B4BDB6A1B0903F0AE
:100D10000F030133FB60384BDB6A1B0A03F00F0340
:100D20000233BB60364AFB68B2FBF3F3BA6802FBDE
:100D300003F23B69B2FBF3F37A6A02FB03F27B68CE
:100D40001A6003E07B682D4A1A6000BF2A4B5B687B
:100D500003F0F0033B623B6A1B093B622A4A3B6A91
:100D600013441B78DBB2BB617B681A68BB69DA404D
:100D70007B685A60204B5B6803F4E0633B623B6A2C
:100D80001B0A3B62204A3B6A13441B78DBB2BB61FF
:100D90007B685A68BB69DA407B689A60164B5B686F
:100DA00003F460533B623B6ADB0A3B62164A3B6AD0
:100DB00013441B78DBB2BB617B685A68BB69DA40BD
:100DC0007B68DA600C4B5B6803F440433B623B6A30
:100DD0009B0B3B620D4A3B6A13441B78DBB2BB6141
:100DE0007B68DA68BB69B2FBF3F27B681A6100BF0B
:100DF0002C37BD4680BC70470010024000127A00BC
:100E000040787D0100093D00080000201800002006
:100E100080B483B000AF78600B46FB70FB78002B8A
:100E200006D00949084B9A697B6813438B6106E039
:100E30000549054B9A697B68DB4313408B6100BF12
:100E40000C37BD4680BC70470010024080B58CB0A6
:100E500000AF786039600023FB620023BB6200238F
:100E60007B6200233B620023FB617B68FB617B6844
:100E70001B8A9BB2FB62FA6A4CF6FF731340FB625B
:100E80003B68DB881A46FB6A1343FB62FB6A9AB233
:100E90007B681A827B689B899BB2FB62FA6A4EF67A
:100EA000F3131340FB623B689A883B681B8913432A
:100EB0009AB23B685B8913439BB21A46FB6A1343A1
:100EC000FB62FB6A9AB27B689A817B689B8A9BB2C1
:100ED000FB62FA6A4FF6FF431340FB623B689B8953
:100EE0001A46FB6A1343FB62FB6A9AB27B689A82DA
:100EF00007F108031846FFF7A7FEFB692E4A934245
:100F000002D17B69BB6201E03B69BB627B689B8964
:100F10009BB21BB2002B0CDABA6A13469B00134437
:100F20009A001A443B681B685B00B2FBF3F37B62D8
:100F30000BE0BA6A13469B0013449A001A443B68BC
:100F40001B689B00B2FBF3F37B627B6A1B4AA2FB2C
:100F500003235B091B01FB62FB6A1B09642202FB82
:100F600003F37A6AD31A3B627B689B899BB21BB2FC
:100F7000002B0CDA3B6ADB003233104AA2FB03235E
:100F80005B0903F00703FA6A1343FB620BE03B6A59
:100F90001B013233094AA2FB03235B0903F00F0351
:100FA000FA6A1343FB62FB6A9AB27B681A8100BF3C
:100FB0003037BD4680BD00BF003801401F85EB5172
:100FC00080B483B000AF78600B46FB70FB78002BD9
:100FD00008D07B689B899BB243F400539AB27B682C
:100FE0009A8107E07B689B899BB223F400539AB2F5
:100FF0007B689A8100BF0C37BD4680BC704780B4C7
:1010000087B000AF78600B467B8013467B7000236F
:101010003B610023FB600023BB6000237B617B6896
:101020007B617B88DBB25B09DBB23B617B8803F0D1
:101030001F03FB600122FB6802FA03F3BB603B69FC
:10104000012B03D17B690C337B6109E03B69022BE7
:1010500003D17B6910337B6102E07B6914337B61D0
:101060007B78002B06D07B697A691168BA680A43DD
:101070001A6006E07B697A691168BA68D2430A404F
:101080001A6000BF1C37BD4680BC704780B485B075
:1010900000AF78600B467B800023FB737B681B8866
:1010A0009AB27B8813409BB2002B02D00123FB73C2
:1010B00001E00023FB73FB7B18461437BD4680BC60
:1010C000704780B487B000AF78600B467B80002308
:1010D000FB6000237B610023BB600023FB747B88E3
:1010E000DBB25B09DBB2BB607B8803F01F037B6173
:1010F00001227B6902FA03F37B61BB68012B07D1F4
:101100007B689B899BB21A467B6913407B6111E027
:10111000BB68022B07D17B681B8A9BB21A467B698E
:1011200013407B6106E07B689B8A9BB21A467B6911
:1011300013407B617B881B0A9BB2FB600122FB682A
:1011400002FA03F3FB607B681B889BB21A46FB68BC
:101150001340FB607B69002B05D0FB68002B02D09D
:101160000123FB7401E00023FB74FB7C18461C3751
:10117000BD4680BC704780B485B000AF78600B4638
:101180007B800023FB810023BB817B881B0AFB81C2
:10119000FB89012202FA03F3BB81BB89DB439AB2CC
:1011A0007B681A8000BF1437BD4680BC70470000C2
:1011B00080B500AF1A4A1A4B1B6843F00103136055
:1011C0001749174B5A68174B13404B60144A144B7E
:1011D0001B6823F0847323F480331360104A104B90
:1011E0001B6823F4802313600D4A0D4B5B6823F4C6
:1011F000FE0353600A4A0A4B1B6823F0A053136096
:10120000074B4FF47F029A60054B0022DA6200F030
:101210000DF8054B4FF000629A6000BF80BD00BF23
:10122000001002400000FFF000ED00E080B500AFCC
:1012300000F002F800BF80BD80B483B000AF00238F
:101240007B6000233B60474A464B1B6843F4803376
:101250001360444B1B6803F400333B607B6801332D
:101260007B603B68002B03D17B68B3F5A06FF0D1A6
:101270003C4B1B6803F40033002B02D001233B607E
:1012800001E000233B603B68012B66D1364A364BB8
:101290001B6843F010031360334A334B1B6823F081
:1012A00003031360304A304B1B6843F002031360A2
:1012B0002C4A2C4B5B6853602A4A2A4B5B6853606C
:1012C000284A284B5B6843F4806353602549254BCB
:1012D000DA6A264B1340CB62224A224BDB6A43F484
:1012E000833343F04403D3621E4A1E4B1B6843F012
:1012F0008063136000BF1B4B1B6803F00063002B6F
:10130000F9D0184A174B5B6823F47C135360154AD5
:10131000144B5B6843F4E8135360124A114B1B688B
:1013200043F08073136000BF0E4B1B6803F0007323
:10133000002BF9D00B4A0B4B5B6823F0030353607F
:10134000084A084B5B6843F00203536000BF054B3B
:101350005B6803F00C03082BF9D100BF0C37BD46C6
:1013600080BC7047001002400020024000F0FEFFE9
:10137000002103E00A4B5B584350043109480A4BF3
:1013800042189A42F6D3094A02E0002342F8043B8D
:10139000074B9A42F9D3FFF70BFF00F0C1F87047F3
:1013A0003098000800000020B0000020B0020020AB
:1013B000500A0020FEE7000080B400AF024B1B681B
:1013C0001846BD4680BC70474C05002080B582B0F1
:1013D00000AF0E4B1B6801330C4A136002F01EFC79
:1013E00078607B689B6C5A1E7B689A647B689B6CF8
:1013F000002B05D17B685A6C7B689A6402F09AFCDA
:1014000003F0A8F800BF0837BD4680BD4C0500209A
:1014100080B485B000AF78607B68002B03DA4FF0B2
:10142000FF33FB6027E07B68164A82FB03129211B0
:10143000DB17D31A4FF47A7202FB03F3FB607A686E
:10144000104B83FB02139911D317CB1A4FF47A7107
:1014500001FB03F3D31A4FF47A7202FB03F303F296
:10146000E733084A82FB03129211DB17D31A1A469C
:10147000FB681344FB60FB6818461437BD4680BC0C
:10148000704700BFD34D621080B400AF00231846F0
:10149000BD4680BC704780B400AF00231846BD46EF
:1014A00080BC704780B400AF00231846BD4680BCA6
:1014B000704780B400AF00231846BD4680BC70471B
:1014C00080B582B000AF084B7B6005E07B681B688D
:1014D00098477B6804337B607B68044A9342F5D36A
:1014E00000BF0837BD4680BD10980008149800085A
:1014F00080B582B000AF084B7B6005E07B681B685D
:1015000098477B6804337B607B68044A9342F5D339
:1015100000BF0837BD4680BD149800082098000819
:1015200080B500AF00F036F80023184680BD80B5C6
:1015300082B000AF7860FFF7DBFFFEF793FF00BFDC
:101540000837BD4680BD000080B584B002AF1423CB
:1015500001930A2300934FF40063002209490A48CB
:1015600002F0B6FB78607B68002B04D1C4220749E7
:10157000074801F0C5FA786802F05AFB00BF083747
:10158000BD4680BD2F150008B0740008C88D000846
:10159000B874000880B500AFFEF75AFEFEF7EAFF08
:1015A00000F02CFE03F03CF802F094F8FFF7CCFFBB
:1015B00003F050F800F0B6FA02F0B6F8002318462F
:1015C00080BD80B584B000AFF860B9601346FB8081
:1015D000FB68002B02D14FF0FF3318E0B86800F031
:1015E0001BF80346002B02D04FF0FF330FE0FB68DF
:1015F000BA680921184601F059FEFB68FA88DA82B8
:10160000FB6800229A76FB6800221A8300231846A2
:101610001037BD4680BD000080B586B000AF786051
:1016200002F0FCFA0346002B01D002F075F9092004
:1016300001F018FE38613B69002B04D17C22184967
:10164000184801F05DFA3B695B687B6117E07B69D4
:101650000C3BFB60FB6808227968184600F093FD9C
:101660000346002B08D102F0D9FA0346002B01D023
:1016700002F068F9FB680FE07B691B687B613B69DE
:101680001A1D7B699A42E2D102F0C8FA0346002B88
:1016900001D002F057F9002318461837BD4680BD27
:1016A000DC8D00083C75000880B584B000AF786020
:1016B0000B467B800023FB607B68002B04D1F42267
:1016C0003B493C4801F01CFA7B68184601F048FF92
:1016D0000346092B04D0F5223549374801F010FAAA
:1016E0007B68DB8A03F01003002B1AD17B685B6AEE
:1016F000002B0FD07B685B6A78689847F860FB68BE
:10170000002B07D07B68FA6819462C4801F0B8F91D
:10171000FB6848E07B68DB8A43F010039AB27B6881
:10172000DA827B68DB8A03F00803002B08D07B6831
:101730001B8B03F00803002B02D06FF0060332E08E
:101740007B689B6A002B07D07B689B6A7A8811466E
:1017500078689847F86007E07B8823F0F0031B0562
:101760001B0D9AB27B681A83FB68002B03D0FB68C1
:1017700013F1060F16D17B681B8B43F008039AB256
:101780007B681A837B689B7E0133DAB27B689A762A
:101790007B689B7E002B05D140F223120449084848
:1017A00001F0AEF9FB6818461037BD4680BD00BF9A
:1017B000EC8D0008C8740008D8740008887500080B
:1017C000C075000880B584B000AF78600023FB606E
:1017D0007B68002B05D140F235121E491E4801F0EE
:1017E0008FF97B68184601F0BBFE0346092B05D034
:1017F0004FF49B721749194801F082F97B689B7E70
:10180000002B02D14FF0FF331FE07B689B7E013B32
:10181000DAB27B689A767B689B7E002B01D000232E
:1018200013E07B68DB6A002B04D07B68DB6A786896
:101830009847F860FB68002B03D0FB6813F1060F94
:1018400002D17B6800221A83FB6818461037BD4618
:1018500080BD00BFFC8D0008C8740008D874000863
:1018600090B585B000AFF860B9607A603B60FB6806
:10187000002B05D140F25F121849194801F040F9D8
:10188000FB68184601F06CFE0346092B05D04FF4A7
:10189000B0721249134801F033F9FB689B7E002BAC
:1018A00005D14FF0FF3000F083FB002311E0FB680F
:1018B0001B6B002B08D0FB681C6B3B687A68B9680F
:1018C000F868A047034604E06FF0050000F070FBE5
:1018D000002318461437BD4690BD00BF0C8E00088B
:1018E000C8740008D874000890B585B000AFF860DF
:1018F000B9607A603B60FB68002B05D14FF4C3727E
:101900001849194801F0FCF8FB68184601F028FE58
:101910000346092B05D040F287121249134801F003
:10192000EFF8FB689B7E002B05D14FF0FF3000F0F5
:101930003FFB002311E0FB685B6B002B08D0FB68CA
:101940005C6B3B687A68B968F868A047034604E0B6
:101950006FF0050000F02CFB002318461437BD463D
:1019600090BD00BF1C8E0008C8740008D874000821
:1019700080B582B000AF786039607B68002B05D1FC
:1019800040F2C1120C490D4801F0BAF87B681846C4
:1019900001F0E6FD0346092B05D04FF4E17206493C
:1019A000074801F0ADF87B683A68DA610023184611
:1019B0000837BD4680BD00BF2C8E0008C8740008E3
:1019C000D874000880B483B000AF78607B681B686F
:1019D0007A6852685A607B685B687A6812681A6035
:1019E0007B687A685A607B685A687B681A6000BFB7
:1019F0000C37BD4680BC704780B483B000AF074B46
:101A00007B607B681A687B689A4214BF01230023BD
:101A1000DBB218460C37BD4680BC7047380A002040
:101A200080B584B000AF4FE0FEF712FCF86000F024
:101A3000ABFA0346002B08D02749284801F020F8CC
:101A400098222549264801F05BF8F868FEF704FC67
:101A5000FEF7FEFBB860FFF7CFFF0346002B24D054
:101A6000204B1B68143B7B607B6814331846FFF7E0
:101A7000A9FF01F051FF7B689B6F002B03D07B68AF
:101A80009B6F78689847786801F04CFD0346012BFE
:101A900008D1786801F06EFC01F054FFB868FEF7D9
:101AA000DBFB16E001F04EFF03E0B868FEF7D4FB65
:101AB0000FE0B868FEF7D0FB7B689B6A184601F020
:101AC000B9FA786801F0F0FCFFF796FF0346002BA7
:101AD000AAD11037BD4680BD488E0008D4750008D5
:101AE000FC750008380A002080B584B000AF78602B
:101AF0000023FB600DE00A4AFB6852F82330002BFC
:101B000004D0074AFB6852F823309847FB6801333A
:101B1000FB60FB68032BEED9FFF782FFE8E700BF0D
:101B2000D006002080B584B004AF202303931F2388
:101B300002934FF480730193064B00930023064AEF
:101B40000649074802F034F8054802F071F800BF72
:101B5000BD4680BDD0050020E91A000800760008C7
:101B60005005002080B483B000AF78607B687A684D
:101B70005A607B685A687B681A6000BF0C37BD46A4
:101B800080BC704780B483B000AF786039607B68F8
:101B90005B683A681A607B685A683B685A607B6881
:101BA0003A685A603B687A681A6000BF0C37BD46D5
:101BB00080BC704780B483B000AF78607B681A68DF
:101BC0007B689A420CBF01230023DBB218460C3716
:101BD000BD4680BC704780B582B000AF78607B683E
:101BE00014331846FFF7BEFF002318460837BD46DA
:101BF00080BD80B586B000AFF860B9601346FB7158
:101C0000B86802F029F9FB79002B02D0012B07D02C
:101C100031E0BB6814331946F868FFF7B3FF2AE0D8
:101C2000FB681B687B6117E07B69143B3B61BB6809
:101C300093F835203B6993F835309A4209D23B69D5
:101C400003F11402BB68143319461046FFF79AFFDC
:101C500006E07B691B687B617A69FB689A42E3D185
:101C60007A69FB689A4205D1BB6814331946F86853
:101C7000FFF788FF00BF002318461837BD4680BD18
:101C800080B584B000AF78607B681B68143BFB6054
:101C9000F86802F035F9002318461037BD4680BDBC
:101CA00080B584B000AFF860B9607A60FB70FB6803
:101CB000002B04D1CC221149114800F021FF7B6890
:101CC000B3F5803F04D3CD220C490E4800F018FF35
:101CD000FB68BA680221184601F0E8FAFB6818466A
:101CE000FFF779FF7B689AB2FB689A83FB68FA7802
:101CF0005A72002318461037BD4680BD608E00081A
:101D0000087600081876000890B587B000AF7860B4
:101D100039607B68002B05D14FF4A5724A494B48C6
:101D200000F0EEFE7B68184601F01AFC0346022B19
:101D300005D040F24B124449454800F0E1FE454BC6
:101D40001B68002B04D0434B1B687A6810469847E9
:101D5000FEF77EFA04467B689B8B002B09D07B68DC
:101D60009B8B013B9AB27B689A832046FEF774FAFC
:101D70005CE03B68002B05D12046FEF76DFA6FF062
:101D800001035DE0FEF764FA786101F047FF034666
:101D9000002B09D12C49304800F072FE40F26B1242
:101DA00029492E4800F0ACFEFEF752FA386100F0E7
:101DB000EBF80346002B09D02349294800F060FEC8
:101DC00040F26B122049254800F09AFE3869FEF770
:101DD00043FA7869FEF740FA01F020FFF860FB68EB
:101DE00000221A637B6803F114007B685B7A1A4651
:101DF000F968FFF7FEFE3B68002B0BDDFB684C33F8
:101E00003A460021184602F055FBFB684C33184651
:101E100002F008FA2046FEF71FFA01F0A3FCFB6867
:101E20001B6B002B02D0FB681B6B09E00D4B1B6882
:101E3000002B04D00B4B1B687A6810469847002390
:101E400018461C37BD4690BD6C8E00080876000809
:101E50002C760008280900200C770008CC760008B2
:101E6000A476000824090020B0B582B000AF7860E5
:101E70007B68002B05D140F2B7121F491F4800F0C4
:101E80003FFE7B68184601F06BFB0346022B05D032
:101E90004FF4DC7218491A4800F032FE194B1B68E7
:101EA000002B04D0174B1B687A6810469847002413
:101EB000FEF7CEF905467B6814331846FFF77AFE25
:101EC0000346002B06D17B6814331846FFF7D8FE73
:101ED000012405E07B689B8B01339AB27B689A836F
:101EE0002846FEF7B9F9012C01D101F03BFC002393
:101EF00018460837BD46B0BD788E00080876000841
:101F00002C7600082009002080B582B000AFFEF7D3
:101F10009FF978600A4B1B78DBB20133DAB2084BC9
:101F20001A70084B1B68002B02D0064B1B689847A1
:101F30007868FEF791F900BF0837BD4680BD00BF45
:101F400018090020E006002080B582B000AFFEF73F
:101F50007FF978600A4B1B78DBB2013BDAB2084BA1
:101F60001A70084B1B68002B02D0064B1B68984761
:101F70007868FEF771F900BF0837BD4680BD00BF25
:101F800018090020E406002080B582B000AFFEF7FB
:101F90005FF97860054B1B78FB707868FEF75CF999
:101FA000FB7818460837BD4680BD00BF18090020E1
:101FB00080B584B000AF7860FFF7E6FF0346002BE2
:101FC00003D00A4A7B6813600CE001F027FEF8603A
:101FD000FB68002B03D1054A7B68136002E0FB68B5
:101FE0007A681A631037BD4680BD00BFE80600203E
:101FF00080B489B000AFF860B9607A60FB68FB61BB
:10200000BB68DBB27B617B68032B40D9FB6803F0C4
:102010000303002B3BD1FB68BB617B691A027B6920
:1020200013433B613B691B043A6913433B6116E070
:10203000BB691A1DBA613A691A60BB691A1DBA6197
:102040003A691A60BB691A1DBA613A691A60BB69BC
:102050001A1DBA613A691A607B68103B7B607B6825
:102060000F2BE5D807E0BB691A1DBA613A691A60FF
:102070007B68043B7B607B68032BF4D8BB69FB6106
:1020800005E0FB695A1CFA617A69D2B21A707B6862
:102090005A1E7A60002BF4D1FB6818462437BD46DF
:1020A00080BC704780B487B000AFF860B9607A60D8
:1020B000FB687B61BB683B613A697B699A4226D2C7
:1020C0003A697B681A447B699A4220D97A697B68AD
:1020D00013447B613A697B6813443B6109E07B6987
:1020E000013B7B613B69013B3B613B691A787B6942
:1020F0001A707B685A1E7A60002BF0D10CE07B6965
:102100005A1C7A613A69511C396112781A707B68DD
:102110005A1E7A60002BF2D1FB6818461C37BD4668
:1021200080BC704780B487B000AFF860B9607A6057
:102130007B68002B21D0FB687B61BB683B617B69BE
:102140005A1C7A613A69511C396112781A701B78ED
:10215000002B0CD104E07B695A1C7A6100221A70B2
:102160007B68013B7B607B68002BF4D105E07B68DA
:10217000013B7B607B68002BE1D1FB6818461C3774
:10218000BD4680BC704790B484B000AFF860B960C1
:102190007A60002413E0FB681A78BB68591CB960A8
:1021A0001B78D31ADBB25CB2002C0BD1FB685A1C33
:1021B000FA601B78002B05D07B68013B7B607B6855
:1021C000002BE8D1234618461037BD4690BC704717
:1021D00080B485B000AF78607B68FB6002E0FB688C
:1021E0000133FB60FB681B78002BF8D1FA687B6831
:1021F000D31A18461437BD4680BC704780B582B0EC
:1022000002AF0A4800F03CFC094800F039FC094BD9
:102210000093042301220321074800F031FC074802
:1022200000F02EFC00BFBD4680BD00BF807A0008D4
:102230008C7A0008D07A0008B07A0008DC7A0008AE
:1022400080B485B000AF786039603B680A2B17D145
:102250007B681B681946134BA3FB0123DA0813465E
:102260009B0013445B00CA1AFA607B681B681A461D
:102270000C4BA3FB0223DB081A467B681A600AE0BA
:102280007B681B6803F00F03FB607B681B681B09FE
:102290001A467B681A60FB6818461437BD4680BC36
:1022A000704700BFCDCCCCCC90B482B000AF78608A
:1022B00000240DE023469B0023445B0018467B6806
:1022C0001B68591C7A6811601B780344A3F1300421
:1022D0007B681B681B78303B092BEBD923461846DB
:1022E0000837BD4690BC7047F0B58DB000AFF860C0
:1022F000B9607A603B60FB6CBB62BC6C3B6D03F009
:102300004003002B01D06D4B00E06D4B7B623B6DB9
:1023100003F01003002B03D03B6D23F001033B655A
:102320003B6D03F00103002B01D0302300E020239C
:1023300087F82330002387F82F303B6D03F002032A
:10234000002B1AD07B68002B06DA2D2387F82F305C
:102350007B685B427B6010E03B6D03F00403002B65
:1023600003D02B2387F82F3007E03B6D03F00803E1
:10237000002B02D0202387F82F3000257B68002B0C
:1023800019D12B465D1C07F130021344302203F8AB
:10239000202C13E02E46751C3B1D39681846FFF7AC
:1023A0004FFF03461A467B6A13441A7807F130033D
:1023B000334403F8202C7B68002BEBD1FB6C9D424F
:1023C00000DDFD64FB6CE41A3B6D03F01103002B90
:1023D00015D197F82F30002B0DD0002C0BDD013CD0
:1023E00009E0FA68BB689A4202D2FB6820221A70A0
:1023F000FB680133FB6023465C1E002BF1DC97F881
:102400002F30002B0BD0FA68BB689A4203D2FB68CE
:1024100097F82F201A70013CFB680133FB603B6D7D
:1024200003F01003002B1AD10AE0FA68BB689A4245
:1024300003D2FB6897F823201A70FB680133FB6016
:1024400023465C1E002BF0DC09E0FA68BB689A4268
:1024500002D2FB6830221A70FB680133FB60FB6C10
:102460005A1EFA64AB42F0DC0DE0FA68BB689A428F
:1024700006D207F130032B4413F8202CFB681A70A6
:10248000FB680133FB602B465D1E002B0DDDBB6A34
:10249000002BEAD109E0FA68BB689A4202D2FB68D5
:1024A00020221A70FB680133FB6023465C1E002B60
:1024B000F1DCFB6818463437BD46F0BD888E000855
:1024C0009C8E000880B592B004AFF860B9607A6065
:1024D0003B60FB68BB62FA68BB6813447B627A6A44
:1024E000FB689A4280F075824FF0FF337B627A6A14
:1024F000FB68D31ABB606CE27B681B78252B0BD082
:10250000BA6A7B6A9A4203D27B681A78BB6A1A70ED
:10251000BB6A0133BB6259E20023BB777B6801339E
:102520007B607B681B782D2B04D1BB7F43F01003AD
:10253000BB77F3E77B681B782B2B04D1BB7F43F081
:102540000403BB77EAE77B681B78202B04D1BB7FB1
:1025500043F00803BB77E1E77B681B78232B04D1AA
:10256000BB7F43F02003BB77D8E77B681B78302B19
:1025700004D1BB7F43F00103BB77CFE700BF4FF02F
:10258000FF33BB617B681B78303B092B05D83B1DB3
:102590001846FFF789FEB86115E07B681B782A2B87
:1025A00011D17B6801337B603B681A1D3A601B6860
:1025B000BB61BB69002B06DABB695B42BB61BB7FB9
:1025C00043F01003BB774FF0FF337B617B681B78D0
:1025D0002E2B1ED17B6801337B607B681B78303BE0
:1025E000092B05D83B1D1846FFF75EFE78610BE00E
:1025F0007B681B782A2B07D17B6801337B603B68A3
:102600001A1D3A601B687B617B69002B01DA00238D
:102610007B6100237B777B681B78682B03D07B680A
:102620001B786C2B05D17B681B787B777B6801332B
:102630007B600A23FB777B681B78253B532B00F2DA
:10264000708101A252F823F0EF2800082329000826
:10265000232900082329000823290008232900082A
:10266000232900082329000823290008232900081A
:10267000232900082329000823290008232900080A
:1026800023290008232900082329000823290008FA
:1026900023290008232900082329000823290008EA
:1026A00023290008232900082329000823290008DA
:1026B00023290008232900082329000823290008CA
:1026C00023290008232900082329000823290008BA
:1026D00023290008232900082329000823290008AA
:1026E000232900082329000823290008232900089A
:1026F000232900082329000823290008232900088A
:102700002329000823290008232900082329000879
:10271000232900080B290008232900082329000881
:102720002329000823290008232900082329000859
:102730002329000823290008232900082329000849
:1027400099270008192900082329000823290008CF
:102750002329000823290008192900082329000833
:102760002329000823290008232900082329000819
:1027700005290008B7280008232900082329000894
:1027800007280008232900085F29000823290008DA
:102790002329000813290008BB7F03F01003002B36
:1027A00010D109E0BA6A7B6A9A4202D2BB6A20223F
:1027B0001A70BB6A0133BB62BB69013BBB61BB6979
:1027C000002BEFDC3B681A1D3A601B68FB74BA6A89
:1027D0007B6A9A4202D2BB6AFA7C1A70BB6A0133E6
:1027E000BB6209E0BA6A7B6A9A4202D2BB6A2022C3
:1027F0001A70BB6A0133BB62BB69013BBB61BB6939
:10280000002BEFDCE2E03B681A1D3A601B683B627C
:102810003B6A002B01D17C4B3B62386AFFF7D8FC46
:102820000346FB627B69002B05DDFA6A7B699A42ED
:1028300001DD7B69FB62BB7F03F01003002B10D12D
:1028400009E0BA6A7B6A9A4202D2BB6A20221A70F5
:10285000BB6A0133BB62BB695A1EBA61FA6A934212
:10286000EFDC00233B6310E0BA6A7B6A9A4203D232
:102870003B6A1A78BB6A1A70BB6A0133BB623B6A57
:1028800001333B623B6B01333B633A6BFB6A9A4219
:10289000EADB09E0BA6A7B6A9A4202D2BB6A20226A
:1028A0001A70BB6A0133BB62BB695A1EBA61FA6A0D
:1028B0009342EFDC8AE0BB69B3F1FF3F05D1082307
:1028C000BB61BB7F43F00103BB773B681A1D3A60D5
:1028D0001B681A46BB7F02937B690193BB69009317
:1028E0001023796AB86AFFF7FFFCB8626EE0BA6A33
:1028F0007B6A9A4202D2BB6A25221A70BB6A0133F4
:10290000BB6263E00823FB772AE0BB7F43F0400310
:10291000BB771023FB7723E0BB7F43F00203BB7739
:102920001DE0BA6A7B6A9A4202D2BB6A25221A70FB
:10293000BB6A0133BB627B681B78002B0BD0BA6A81
:102940007B6A9A4203D27B681A78BB6A1A70BB6AA8
:102950000133BB623AE07B68013B7B6036E000BF3D
:102960007B7F6C2B09D13B681A1D3A601B687B6327
:10297000BB7F03F00203002B1AE07B7F682B0ED194
:102980003B681A1D3A601B689BB27B63BB7F03F0F8
:102990000203002B0CD07B6B1BB27B6308E03B680F
:1029A0001A1D3A601B687B63BB7F03F00203002B98
:1029B0007A6BF97FBB7F02937B690193BB690093BC
:1029C0000B46796AB86AFFF78FFCB8627B680133FF
:1029D0007B607B681B78002B7FF48EADBB68002B7F
:1029E0000BD0BA6A7B6A9A4203D2BB6A00221A7081
:1029F00003E07B6A013B00221A70BA6AFB68D31AB3
:102A000018463837BD4680BD087B000880B400AF4B
:102A1000024B1B681846BD4680BC7047EC06002080
:102A200080B584B000AF78600F4B1B68FB6078689E
:102A3000FEF7F2FDB860BB68002B0FD00A4B1B6895
:102A4000002B04D0084B1B681846FEF7BBFE432141
:102A5000B868FEF729FE044ABB681360FB68184695
:102A60001037BD4680BD00BFEC06002080B483B0A7
:102A700000AF786000BF0C37BD4680BC70470000D7
:102A80000FB480B584B000AF07F11C037B607B6896
:102A9000BA697F211848FFF715FD0346FB60FB6804
:102AA0007F2B01D97F23FB60144B1B68002B03D1C4
:102AB0001148FFF7DBFF17E0104B1B681B8B7B8176
:102AC0000E4B1B680D4A1268128B42F0400292B204
:102AD0001A830A4B1868FB68074A0021FEF704FFB7
:102AE000064B1B687A891A8300BF1037BD46BDE8C4
:102AF000804004B0704700BFF0060020EC060020C4
:102B000080B586B000AFF860B9607A600023FB75CD
:102B10000C4B1B68002B0BD17B68BA68F9680A481C
:102B2000FFF7AEFF00BFFB7DDBB2002BFBD005E063
:102B3000044B1B687A68B968F868984700BF183773
:102B4000BD4680BD1C090020107B000880B584B004
:102B500000AF7860364B1B687A689A4204D2A12293
:102B600034493548FFF7CCFF344B1B687A689A42EA
:102B700004D3A2222F493248FFF7C2FF7B685B884B
:102B8000002B04D0A3222B492E48FFF7B9FF284B76
:102B90001A687B685B681344FB607A68FB689A423A
:102BA0001ED0FB685B88002B1AD1244B1B68FA6887
:102BB0009A4215D0244B1A68FB689A4202D1224AE5
:102BC0007B681360FB685A687B685A60184B1A6808
:102BD000FB685B6813447A6815490968521A9A6061
:102BE000134B1A687B689B681344BB60BA687B68A8
:102BF0009A4219D0BB685B88002B15D1124B1A681A
:102C00007B689A4202D1104ABB6813607B685A689D
:102C1000BB685A60064B1A687B685B681344BA68E5
:102C200003490968521A9A6000BF1037BD4680BD3B
:102C300078070020DC8E0008487B00087C07002015
:102C4000687B0008947B00088007002080B586B070
:102C500000AF786039607B68033323F003037B6146
:102C60003B6823F003033B61FDF7F2FAF860FFF7DE
:102C70008BF90346002B08D030493148FFF700FF9D
:102C8000D2222E492F48FFF73BFFF868FDF7E4FA00
:102C90003B69182B48D93B69A3F118027B699A421A
:102CA00042D33A697B69D31A183B274A13607B6980
:102CB000264A1360254B1B68BB60BB684FF4F55276
:102CC0001A80214B1B6803F10C02BB685A60BB6879
:102CD00000229A60BB6800225A801C4B1A68BB68AD
:102CE0005B6813441A4A1360194B1B684FF4F55282
:102CF0001A80174B1B6801225A80154B1B68124A19
:102D000012680C325A60124B1B680F4A12680C3260
:102D10009A60002301220F490F48FEF7C1FF0B4BB9
:102D20001B680E4A136006E07B683A6819460C4837
:102D3000FFF7A6FE00BF1837BD4680BDE88E00082D
:102D4000A47B0008CC7B0008A407002078070020A3
:102D50007C0700200C7C00088407002080070020EE
:102D6000D07B000880B588B000AF78607B68002B0E
:102D700001D100231DE1FDF76BFAB861FFF704F9FB
:102D80000346002B09D08D498D48FFF779FE4FF49B
:102D90008C728A498B48FFF7B3FEB869FDF75CFA7D
:102DA0007B68033323F003037B60874B1B687A68DF
:102DB0009A4201D90023FCE07B680B2B01D80C233D
:102DC0007B604FF0FF318148FEF79EFF804B1B6810
:102DD0001A46804B1B68D31AFB61DEE07D4B1A68F4
:102DE000FB6913447B617B695B88002B40F0CF80DB
:102DF0007B695A68FB69D31AA3F10C027B689A427B
:102E0000C0F0C5807B695A68FB69D31AA3F10C0234
:102E10007B6818339A423DD3FA697B6813440C33BC
:102E20003B616C4B1A683B691344FB60FB684FF4D1
:102E3000F5521A80FB6800225A807B695A68FB6849
:102E40005A60FB68FA699A607B693A695A607B69E3
:102E500001225A80FB685A685B4B1B680C339A420C
:102E600006D05C4B1A68FB685B6813443A699A6049
:102E7000594B1A687B6813440C33574A1360574BFD
:102E80001A68554B1B689A421DD2534B1B68534A14
:102E9000136018E07B6901225A807B695B687A695C
:102EA0004C490968521A9A1A4B4B1B6813444A4AF8
:102EB00013604A4B1A68484B1B689A4203D2464B30
:102EC0001B68464A13607B694FF4F5521A80404BE9
:102ED0001B687A699A4224D107E03E4B1A683C4B42
:102EE0001B685B6813443A4A1360394B1B685B8864
:102EF000002B05D0364B1A68394B1B689A42ECD12F
:102F0000334B1A68364B1B689A420AD0304B1B6809
:102F10005B88002B05D04FF4C17228493148FFF778
:102F2000EFFD2A48FEF7A0FF7A697B6813440C3353
:102F30002B4A1268934205D94FF4C3721F492A489D
:102F4000FFF7DEFD7B690C3303F00303002B05D094
:102F500040F2871219492548FFF7D2FD7B6903F03B
:102F60000303002B05D04FF4C47214492048FFF727
:102F7000C7FD204B1B68002B06D01E4B1B687A69CF
:102F80000C327968104698477B690C3311E0114B7D
:102F90001A68FB6913445B68FB610B4B1A687B681A
:102FA000D21AFB699A423FF619AF0848FEF75CFF58
:102FB000002318462037BD4680BD00BFFC8E0008A8
:102FC000A47B0008CC7B0008A40700208407002015
:102FD0008007002078070020A8070020AC07002009
:102FE0007C070020147C00083C7C0008807C0008E2
:102FF000CC7C00087007002080B584B000AF7860FA
:1030000039607B683A6802FB03F31846FFF7AAFEB3
:10301000F860FB68002B08D07B683A6802FB03F37A
:103020001A460021F868FEF7E3FFFB6818461037E0
:10303000BD4680BD80B584B000AF78607B68002B52
:1030400000F09780FDF704F9F860FEF79DFF034656
:10305000002B09D04A494B48FFF712FD40F22922C4
:1030600047494948FFF74CFDF868FDF7F5F87B68DC
:1030700003F00303002B05D040F22B2240494348C4
:10308000FFF73EFD424B1B687A689A4204D3414BDE
:103090001B687A689A4205D340F22D2238493E488F
:1030A000FFF72EFD3D4B1B68002B03D03B4B1B68ED
:1030B00078689847364B1B687A689A425BD3354BE1
:1030C0001B687A689A4256D27B680C3BBB604FF013
:1030D000FF313348FEF718FEBB685B88002B04D035
:1030E000BB681B88B3F5F55F0BD02E48FFF7C8FC13
:1030F000BB685B881A46BB681B88B9682A48FFF71B
:10310000BFFCBB685B88002B05D140F24B221C49F9
:103110002648FFF7F5FCBB681B88B3F5F55F05D0C3
:103120004FF4137216492248FFF7EAFCBB680022ED
:103130005A80BB684FF4F5521A801E4B1B68BA6860
:103140009A4202D21B4ABB681360BB68104A1268DD
:103150009B1A1A46BB685B68D21A174B1B6813444C
:10316000154A1360B868FFF7F1FC0D48FEF77CFEC6
:1031700002E000BF00E000BF1037BD4680BD00BFC9
:10318000088F0008A47B0008CC7B0008FC7C0008AA
:10319000780700207C0700202C7D000874070020A1
:1031A00084070020887D0008A47D0008D47D0008E5
:1031B000E07D000880070020A807002080B500AF50
:1031C000094B1B6819460948FFF75AFC084B1B6856
:1031D00019460848FFF754FC074B1B681946074877
:1031E000FFF74EFC00BF80BDA4070020FC7D000857
:1031F000A8070020107E0008AC070020247E0008ED
:1032000080B483B000AF786039607B681B683A682F
:103210005A607B681A683B681A607B683A681A6073
:103220003B687A685A6000BF0C37BD4680BC704767
:1032300080B483B000AF78607B681B687A6852689E
:103240005A607B685B687A6812681A607B687A6883
:103250005A607B685A687B681A6000BF0C37BD46AD
:1032600080BC704780B485B000AF0346FB7100237B
:10327000FB600FE00C4AFB681B0113441B78FA79D2
:103280009A4204D1FB681B01074A134406E0FB681D
:103290000133FB60FB68082BECDD00231846143774
:1032A000BD4680BC704700BF2000002090B589B0AB
:1032B00000AFF8600B467A60FB720023FB61FB7A7B
:1032C0001846FFF7CFFFB861BB69002B04D1FB2282
:1032D00024492548FFF714FC00F01EFBBB695B681E
:1032E000FB6112E0FB690C3B7B617B69002B09D021
:1032F0007A69FB689A4205D140F20B1219491B48C2
:10330000FFF7FEFBFB691B68FB61BB691A1DFB69CC
:103310009A42E7D100F016FBFB7A63F07F03DAB242
:10332000FB681A72FB68082279681846FEF7FAFEF5
:103330000F4B1B68002B03D00D4B1B68F868984798
:10334000FCF786FF0446BB691A1DFB680C3319465F
:103350001046FFF755FF2046FCF77EFF00BF2437DD
:10336000BD4690BD108F0008447E00085C7E0008BA
:10337000B007002090B583B000AF78607B68002B69
:1033800005D14FF49C720F490F48FFF7B9FB0F4B63
:103390001B68002B03D00D4B1B68786898477B682F
:1033A00000221A72FCF754FF04467B680C3318465F
:1033B000FFF73EFF2046FCF74FFF00BF0C37BD462E
:1033C00090BD00BF208F00086C7E0008B40700206D
:1033D00090B587B000AF03463960FB71FCF738FF4A
:1033E0007861FEF7D1FD0346002B09D029492A4810
:1033F000FFF746FB40F25B1226492848FFF780FBA7
:103400007869FCF729FFFB791846FFF72BFF386135
:103410003B69002B05D140F25F121E492048FFF79F
:103420006FFB3B69DB681846FFF79CFCF860FB68A4
:10343000002B01D1002329E03B69DB681A460021FB
:10344000F868FEF7D5FDFB68FA791A72FB6800226E
:103450005A72FB68082239681846FEF763FE114B62
:103460001B68002B03D00F4B1B68F8689847FCF7CC
:10347000EFFE04463B691A1DFB680C3319461046E3
:10348000FFF7BEFE2046FCF7E7FEFB6818461C3738
:10349000BD4690BD348F0008807E0008A87E0008DD
:1034A000447E0008B007002090B583B000AF78607C
:1034B0007B68002B05D140F2991216491648FFF798
:1034C0001FFB7B681B7A5BB2002B05DA4FF4CD72D1
:1034D00010491248FFF714FB114B1B68002B03D057
:1034E0000F4B1B68786898477B6800221A72FCF7BC
:1034F000AFFE04467B680C331846FFF799FE204662
:10350000FCF7AAFE7868FFF795FD00BF0C37BD46B3
:1035100090BD00BF488F00086C7E0008AC7E00089C
:10352000B407002080B582B000AF78607B68002BC4
:1035300005D140F2BB1208490848FFF7E1FA7B6861
:103540001B7A5BB2002B01DA012300E0002318464E
:103550000837BD4680BD00BF5C8F00086C7E000848
:1035600080B582B000AF78607B68002B05D14FF446
:10357000E77206490648FFF7C3FA7B681B7A03F037
:103580007F03DBB218460837BD4680BD788F000840
:103590006C7E000880B483B000AF78607B687A6886
:1035A0005A607B685A687B681A6000BF0C37BD465A
:1035B00080BC704780B483B000AF786039607B68AE
:1035C0005B683A681A607B685A683B685A607B6837
:1035D0003A685A603B687A681A6000BF0C37BD468B
:1035E00080BC704780B483B000AF78607B681B6894
:1035F0007A6852685A607B685B687A6812681A60F9
:103600007B687A685A607B685A687B681A6000BF7A
:103610000C37BD4680BC704780B483B000AF786083
:103620007B681A687B689A420CBF01230023DBB2D7
:1036300018460C37BD4680BC7047000080B584B08A
:1036400000AF78607B68002B04D14B221D491E48D7
:10365000FFF756FA7B689B6A1B78232B11D17B6896
:10366000DB691A467B689B6A9A420AD97B68DB69E8
:103670001A467B689B6A19467B68DB6A0B449A4250
:103680000ED97B6819461148FFF7FAF902F010FFCE
:10369000FCF7DEFD0346FB60FB68002BFCD10DE070
:1036A0007B68DB691A467B689B6A20339A4205D89F
:1036B0007B6819460648FFF7E3F9FFE700BF1037BC
:1036C000BD4680BD8C8F0008D87E0008EC7E0008C7
:1036D000087F000898B500AF0D4B00221A80002427
:1036E00006E0E3000B4A13441846FFF753FF01348A
:1036F0001F2CF6DD084B1F221A70084B00221A609F
:10370000074B00221A600748FFF744FF00BF98BD2F
:10371000B80700202C0900202C0A0020300A0020C5
:10372000340A0020380A002098B500AF0A4B1B6805
:10373000184601F0EBF90346013B1C46074B53F8D2
:103740003430A3F11404064B1C6004F11C0318462A
:10375000FCF7B3FD00BF98BD340A00202C090020FF
:10376000300A002090B585B000AFFCF771FDF8601D
:10377000264BB3F90030002B41D1254B1B6818466E
:1037800001F0C4F90346013B1C46224B53F8343088
:10379000143BBB60204B1B68BA689A422FD0E2B240
:1037A0001E4B1A701C4B1B687B601B4ABB68136066
:1037B0001B4B1B68002B04D0194B1B68B968786839
:1037C0009847B868FFF73AFF164B1B78DBB2002B1F
:1037D0000CD17B681C331A46BB681C331946104653
:1037E000FCF73DFDF868FCF737FD0BE07B681C3308
:1037F0001A46BB681C3319461046FCF730FDF868C2
:10380000FCF72AFD1437BD4690BD00BFB807002065
:10381000340A00202C090020300A00202C0A002045
:10382000BC0700201809002090B583B000AF786075
:103830007B68002B05D14FF4917217491748FFF7A9
:103840005FF9FCF705FD04467B6893F834305BB202
:1038500023F00F035BB243F001035BB2DAB27B6883
:1038600083F834207B6893F83530DB000C4A1A4427
:103870007B68143319461046FFF79CFE7B689A6BF1
:10388000084B1B681343074A13602046FCF7E4FC0F
:1038900000BF0C37BD4690BDA88F0008D87E000839
:1038A0002C090020340A002090B583B000AF786066
:1038B0007B68002B05D14FF4A87213491348FFF71A
:1038C0001FF9FCF7C5FC04467B6814331846FFF764
:1038D00089FE7B6893F83530DB000D4A13441846A7
:1038E000FFF79AFE0346002B07D07B689B6BDA43F9
:1038F000084B1B681340074A13602046FCF7ACFCDA
:1039000000BF0C37BD4690BDC48F0008D87E0008AC
:103910002C090020340A002098B500AFFCF798FC71
:103920000446074BB3F900309BB201339BB21AB285
:10393000034B1A802046FCF78FFC00BF98BD00BFE8
:10394000B807002098B500AFFCF782FC0446104B86
:10395000B3F900309BB2013B9BB21AB20C4B1A80F8
:103960000B4BB3F90030002B0CDC094B00221A8002
:103970002046FCF771FC074B1B68002B05D0FFF7B6
:10398000F1FE02E02046FCF767FC00BF98BD00BFD7
:10399000B8070020300A002080B483B000AF786000
:1039A0007B687A685A607B685A687B681A6000BFD7
:1039B0000C37BD4680BC704780B483B000AF7860E0
:1039C00039607B681B683A685A607B681A683B6894
:1039D0001A607B683A681A603B687A685A6000BF70
:1039E0000C37BD4680BC704780B483B000AF7860B0
:1039F00039607B685B683A681A607B685A683B6824
:103A00005A607B683A685A603B687A681A6000BFFF
:103A10000C37BD4680BC704780B483B000AF78607F
:103A20007B681B687A6852685A607B685B687A6852
:103A300012681A607B687A685A607B685A687B688B
:103A40001A6000BF0C37BD4680BC704790B583B08C
:103A500000AF174B1B687B60FCF7FAFB04467868E5
:103A6000FFF722FF7B68042283F834207B684C3305
:103A7000184600F099FB7868FFF754FD0346012BC8
:103A800007D17B689B6F002B03D17868FFF772FC2E
:103A900005E07B68143319460648FFF78DFF204682
:103AA000FCF7DAFBFFF75EFE00BF0C37BD4690BDAA
:103AB000300A0020380A002080B586B002AFF860D6
:103AC000B9607A603B60FB6814331846FFF764FF07
:103AD000FB687A681A62FB683A685A62FB68BA69DE
:103AE0009A62FB68FA69DA62FB68986AFB68DB6ACB
:103AF0001A462321FEF77CFAFB68186AFB68596AAC
:103B0000FB689A6AFB68DB6A043B1A44234B00F0AB
:103B1000A7FD0246FB68DA6197F820301F2B04D915
:103B200096221F491F48FEF7EBFFFB6897F82020FD
:103B300083F83620FB6897F8202083F83520FB684F
:103B400000229A63FB687A6A5A64FB687A6A9A640C
:103B5000FB6800221A63FB68002283F83420FB68AC
:103B600000229A67FB680022DA67FB6803F14C00C9
:103B7000F9680023019300230093FB680A4A00F0D0
:103B8000EFFA0A4B1B68002B03D0084B1B68F86840
:103B90009847002318461037BD4680BD4D3A0008AF
:103BA000E08F0008407F0008993F0008C807002008
:103BB00080B588B004AFF860B9607A603B60FB689C
:103BC000002B04D1E62212491248FEF799FFBB6987
:103BD000002B04D1E7220E490F48FEF791FFBA6887
:103BE0000121F868FFF762FB7B6A039397F82030A6
:103BF0000293FB690193BB6900933B687A68B968DB
:103C0000F868FFF759FF034618461037BD4680BDD8
:103C1000F08F0008647F0008787F000880B400AF50
:103C2000024B1B681846BD4680BC7047300A002016
:103C300080B582B000AF78607B68002B05D14FF46F
:103C400086721F491F48FEF75BFF7B6893F834308C
:103C500003F00F03002B05D040F20D1218491A484B
:103C6000FEF74EFF7868FFF77BFC0346012B05D07B
:103C70004FF4877212491548FEF742FF7B6893F8AC
:103C800036207B6883F835207B6893F835301A46F8
:103C9000012393401A467B689A637B68022283F86B
:103CA0003420786800F02CF9FFF7B8FF0346002BAA
:103CB00001D0FFF757FD002318460837BD4680BDE9
:103CC00000900008647F0008907F0008C87F00080B
:103CD00080B58AB004AFF860B9607A603B60F9687B
:103CE0000120FFF775FB78617B69002B01D1002370
:103CF0001BE03868FFF736F838613B69002B04D1C8
:103D00007869FFF7D1FB00230FE07B6A039397F8F4
:103D1000203002933B6801933B6900937B68BA684B
:103D2000F9687869FFF7C8FE7B6918461837BD4601
:103D300080BD000090B583B000AFFCF789FA04465F
:103D4000174B1B687B607B6893F8343003F00F03DC
:103D5000012B1DD17B685A697B689B699A4217D0F9
:103D60007B6814331846FFF757FE7B6893F83530AD
:103D7000DB000C4A1A447B68143319461046FFF7DF
:103D800033FE2046FCF768FAFFF7ECFC002303E063
:103D90002046FCF761FA002318460C37BD4690BD5B
:103DA000300A00202C09002090B585B000AF786063
:103DB000FCF74EFA04461C4B1B68FB60FB68002BAB
:103DC00005D14FF4FB7219491948FEF799FEF868BE
:103DD000FFF7C6FB0346012B05D040F2F71213494B
:103DE0001448FEF78DFEF86800F036F8FB684C3397
:103DF0003A1D0021184600F05DFBFB684C33184665
:103E000000F010FA2046FCF727FAFFF7ABFCFB683E
:103E10001B6B13F1020F02D1FB6800221A6300230F
:103E200018461437BD4690BD300A00201490000893
:103E3000647F0008C87F000880B584B000AF786058
:103E40007868FDF7E5FAF860F868FFF7ADFF03461C
:103E500018461037BD4680BD90B583B000AF78607E
:103E60007B68002B05D140F2C32221492148FEF78F
:103E700047FE7868FFF774FB0346012B05D04FF42B
:103E800031721B491C48FEF73BFE7B6893F83430C7
:103E900003F00F03012B02D04FF0FF3324E0FCF7B7
:103EA000D7F904467B6893F834305BB223F00F03F4
:103EB0005BB243F002035BB2DAB27B6883F8342072
:103EC0007868FFF7F1FC7B684C33184600F0A8FADD
:103ED0002046FCF7C1F9094B1B68002B03D0074BA8
:103EE0001B6878689847002318460C37BD4690BD7C
:103EF00024900008647F0008C87F0008C0070020E5
:103F000090B583B000AF78607B68002B05D140F29C
:103F1000EE221D491D48FEF7F3FD7868FFF720FBF0
:103F20000346012B05D040F2EF2217491848FEF74F
:103F3000E7FD7B6893F8343003F00F03022B02D0C7
:103F40004FF0FF331BE0FCF783F904467B68143322
:103F50001846FFF761FD7B684C33184600F060FAA5
:103F60002046FCF779F97868FFF75EFC094B1B687F
:103F7000002B03D0074B1B6878689847002318462E
:103F80000C37BD4690BD00BF38900008647F000824
:103F9000C87F0008C407002080B584B000AF7860F7
:103FA0007B68FB60FB68002B05D140F21B32174990
:103FB0001748FEF7A5FDFB6893F8343003F00F03B4
:103FC000022B05D04FF4477210491248FEF798FDB6
:103FD000F868FFF7C5FA0346012B05D040F21D3201
:103FE0000A490D48FEF78CFDFB686FF001021A6369
:103FF000FB6814331846FFF70FFDF868FFF714FC51
:10400000FFF7B0FB00BF1037BD4680BD4C900008E5
:10401000647F000888800008C87F000880B483B0EF
:1040200000AF78607B687A685A607B685A687B6802
:104030001A6000BF0C37BD4680BC704780B483B0A7
:1040400000AF786039607B681B683A685A607B68AB
:104050001A683B681A607B683A681A603B687A683D
:104060005A6000BF0C37BD4680BC704780B483B037
:1040700000AF78607B681B687A6852685A607B681A
:104080005B687A6812681A607B687A685A607B6835
:104090005A687B681A6000BF0C37BD4680BC704709
:1040A00080B483B000AF78607B681A687B689A42FE
:1040B0000CBF01230023DBB218460C37BD4680BC81
:1040C000704780B586B000AFF860B9607A603B6039
:1040D000FB6897F820205A72FB685B7A23F0010393
:1040E000DAB2FB685A72FB68BA68DA61FB687A6810
:1040F0001A62FB6800229A62FB683A685A620023DF
:104100007B610BE07B690233DB00FA681344043304
:104110001846FFF783FF7B6901337B617B69002BC6
:10412000F0DD00BF1837BD4680BD80B584B000AF5C
:1041300078600023FB600BE0FB680233DB007A68E9
:10414000134404331846FFF791FFFB680133FB600B
:10415000FB68002BF0DD00BF1037BD4680BD0000BE
:1041600080B586B002AFF860B9607A603B60FB68EA
:10417000002B04D1BA220A490A48FEF7C1FCBA68EA
:104180000A21F868FFF792F83B7F0093BB693A6811
:104190007968F868FFF795FF00BF1037BD4680BD0E
:1041A00060900008DC80000890B583B000AF7860B4
:1041B0007B68002B04D1CF2216491748FEF7A0FCDC
:1041C0007B681846FFF7CCF903460A2B04D0D022AF
:1041D00010491248FEF794FC7B681846FFF7A2F9D5
:1041E0000346002B04D1D1220A490D48FEF788FC72
:1041F000FCF72EF804467868FFF797FF2046FCF797
:104200002BF87868FFF7B6F8002318460C37BD4640
:1042100090BD00BF70900008DC800008F0800008AE
:104220002C81000890B589B000AF78607B68002BC6
:1042300005D14FF4997272497248FEF761FC7B68B0
:104240001846FFF78DF903460A2B05D040F23312CA
:104250006B496D48FEF754FCFBF7FAFF044678689B
:10426000FFF763FF7B685B7A23F00103DAB27B68B8
:104270005A722046FBF7F0FF644B1B68002B04D0FA
:10428000624B1B687A68104698477B685B6A604A95
:10429000934205D940F2431259495E48FEF730FC7B
:1042A000FDF78AF802467B685B6A1A447B689A626B
:1042B000FBF7CEFF0446584B7B617B69BB60002354
:1042C000FB6155E0FB699B0007F12002134453F8A2
:1042D000183C1B683B61FB69DB0014335B423A69A5
:1042E0001344FB60FB689A6A7B689B6A9A4208D019
:1042F000FB689A6A7B689B6AD31A454A93421FD926
:1043000000E000BFFB699B0007F12002134453F853
:10431000183C1A68FB699B0007F120010B4443F825
:10432000182CFB699B0007F12002134453F8182C4A
:10433000FB69DB0079690B445B689A42C2D100E0FB
:1043400000BFFB69002B10D0FB69591CFB699B0067
:1043500007F12002134453F8183C03F108028B00C4
:1043600007F120010B4443F8182CFB690133FB6172
:10437000FB69002BD5D0294B1B680133274A1360FA
:10438000264B1B68BB61BA687B681433194610461C
:10439000FFF754FE0223FB611EE0BB6903F0030339
:1043A000002B1DD1FB69C3F101039B0007F1200223
:1043B000134453F8180CFB69C3F101030233DB000B
:1043C0007A68134404331946FFF738FEBB699B082B
:1043D000BB61FB690133FB61FB69012BDDD900E0A7
:1043E00000BF7B685B7A43F00103DAB27B685A72E4
:1043F0002046FBF731FF002318462437BD4690BD09
:1044000080900008DC800008F0800008240900206B
:10441000FEFFFF7F90810008CC070020DC07002012
:1044200090B583B000AF78607B68002B05D140F277
:10443000AB121C491C48FEF763FB7B681846FFF76C
:104440008FF803460A2B05D04FF4D672154917484A
:10445000FEF756FB7B685B7A03F00103002B02D169
:104460004FF0FF3319E0124B1B68002B04D0104BA8
:104470001B687A6810469847FBF7EAFE044678689E
:10448000FFF753FE2046FBF7E7FE7B685B7A23F0DD
:104490000103DAB27B685A72002318460C37BD4616
:1044A00090BD00BF90900008DC800008F0800008FC
:1044B0002009002080B584B000AFF860B9607A6050
:1044C000FB68002B05D14FF4E7721F491F48FEF728
:1044D00017FBFB681846FFF743F803460A2B05D085
:1044E00040F2CF1218491A48FEF70AFBBB68032BAB
:1044F00024D801A252F823F013450008094500080A
:104500001D4500082D450008FB685A6A7B681A6043
:1045100014E07B681A68FB685A620FE0FB685B7AFC
:1045200023F00203DAB2FB685A7207E0FB685B7A99
:1045300043F00203DAB2FB685A7200BF0023184648
:104540001037BD4680BD00BFA0900008DC80000889
:10455000F080000890B583B000AFFCF72DFF7860C5
:10456000FBF776FE044644E0294B1B68143B3B6096
:104570003B689B6A7A68D31A264A934240D8264BF6
:104580001B68002B03D0244B1B6838689847386899
:10459000FFF7CBFD3B68DB693A68126A1046984723
:1045A000FCF70AFF78601D4B1B68002B03D01B4BE8
:1045B0001B68386898473B685B7A03F00203002B5E
:1045C00010D03B685B7A03F00103002B0AD03B68F4
:1045D0005B7A23F00103DAB23B685A723868FFF75E
:1045E00021FE06E03B685B7A23F00103DAB23B6808
:1045F0005A720748FFF754FD0346002BB4D000E081
:1046000000BF2046FBF728FE00BF0C37BD4690BD1B
:10461000CC070020FEFFFF7FD4070020D807002032
:1046200080B582B000AF00237B6009E07B68DB00CF
:10463000074A13441846FFF7F1FC7B6801337B609F
:104640007B68002BF2D000BF0837BD4680BD00BF9D
:10465000CC07002080B400AF00BFBD4680BC7047CF
:1046600080B489B000AFF860B9607A603B607B6865
:104670000433BB61BB6923F00703BB61BB69403BEB
:10468000BB61BB697B610023FB6108E0FB699B00A8
:104690007A691344134A1A60FB690133FB61FB69B1
:1046A0000F2BF3D9BA687B691A627B6900225A62C0
:1046B0007B6900229A627B690022DA627B690022B0
:1046C0001A633A687B695A63FA687B699A637B6903
:1046D0004FF08072DA63BB6918462437BD4680BC50
:1046E000704700BFEFBEADDE80B500AF2548FEF7D6
:1046F000C7F9254B1B889BB219462448FEF7C0F921
:10470000214B1B889BB203F00103002B02D02048F1
:10471000FEF7B6F91C4B1B889BB203F00203002B7B
:1047200002D01C48FEF7ACF9174B1B889BB203F074
:104730000403002B02D01848FEF7A2F9124B1B8885
:104740009BB203F00803002B02D01448FEF798F93F
:104750000D4B1B889BB203F48073002B02D01048D2
:10476000FEF78EF9084B1B889BB203F40073002BF5
:1047700002D00C48FEF784F90B48FEF781F900BF20
:1047800080BD00BFB48100082AED00E0C4810008AC
:10479000DC810008E8810008F4810008FC81000841
:1047A00004820008108200081C82000880B500AF57
:1047B0002648FEF765F9264B1B78DBB219462548DB
:1047C000FEF75EF9224B1B78DBB203F00103002BEE
:1047D00002D02148FEF754F91D4B1B78DBB203F0E1
:1047E0000203002B02D01D48FEF74AF9184B1B7834
:1047F000DBB203F00403002B02D01948FEF740F9A6
:10480000134B1B78DBB203F00803002B02D01548D2
:10481000FEF736F90E4B1B78DBB203F01003002BCA
:1048200002D01148FEF72CF9094B1B78DBB25BB2C2
:10483000002B06DA0D4B1B6819460D48FEF720F9D0
:1048400002E00C48FEF71CF900BF80BD2082000882
:1048500029ED00E02C820008448200085082000804
:104860005C8200086C8200087882000838ED00E065
:10487000808200081C82000880B500AF2148FEF746
:10488000FFF8214B1B78DBB219462048FEF7F8F8F9
:104890001D4B1B78DBB203F00103002B02D01C4838
:1048A000FEF7EEF8184B1B78DBB203F00203002B87
:1048B00002D01848FEF7E4F8134B1B78DBB203F084
:1048C0000803002B02D01448FEF7DAF80E4B1B78D1
:1048D000DBB203F01003002B02D01048FEF7D0F833
:1048E000094B1B78DBB25BB2002B06DA0C4B1B6862
:1048F00019460C48FEF7C4F802E00B48FEF7C0F872
:1049000000BF80BD9082000828ED00E0A48200086E
:10491000BC820008C8820008D4820008E082000837
:1049200034ED00E0EC8200081C82000880B500AF86
:10493000164B1B6803F00203002B02D01448FEF74D
:104940009FF8124B1B6803F08043002B14D0114BCF
:104950001B78DBB2002B01D0FFF728FF0E4B1B7832
:10496000DBB2002B01D0FFF787FF0C4B1B889BB2FB
:10497000002B01D0FFF7B8FE044B1B68002B02DAB6
:104980000748FEF77DF800BF80BD00BF2CED00E0BA
:10499000FC82000829ED00E028ED00E02AED00E0AF
:1049A0001483000880B584B000AF78607B6804335E
:1049B000FB60434B1B68002B07D0414B1B6878689A
:1049C0009847B860BB68002B75D0FB68DB6B194655
:1049D0003C48FEF755F8FB681B6A19463A48FEF753
:1049E0004FF8FB685B6A19463848FEF749F8FB68E0
:1049F0009B6A19463648FEF743F8FB68DB6A19469E
:104A00003448FEF73DF8FB681B6819463248FEF74C
:104A100037F8FB685B6819463048FEF731F8FB68E9
:104A20009B6819462E48FEF72BF8FB68DB68194691
:104A30002C48FEF725F8FB681B6919462A48FEF743
:104A40001FF8FB685B6919462848FEF719F8FB68F0
:104A50009B6919462648FEF713F8FB68DB6919467F
:104A60002448FEF70DF8FB681B6B19462248FEF739
:104A700007F8FB685B6B19462048FEF701F8FB68F6
:104A80009B6B19461E48FDF7FBFF7B681B6803F014
:104A90000403002B09D0FFF7C1F803461946194853
:104AA000FDF7EEFF01F004FD02E01748FDF7E8FF17
:104AB000FFF73CFFFEE700BF1037BD4680BD00BFDB
:104AC000E0070020248300083483000844830008A2
:104AD00054830008648300087483000884830008FA
:104AE00094830008A4830008B4830008C4830008EA
:104AF000D4830008E4830008F483000804840008D9
:104B000014840008248400084484000880B483B01E
:104B100000AF78607B6893FAA3F3B3FA83F37A6803
:104B2000002A01D14FF0FF33013318460C37BD4640
:104B300080BC704780B582B000AF786039600A4BA6
:104B40001B6C002B04D1882208490948FDF7D8FFC7
:104B5000054B1B6C1B683A6879680348984700BF8F
:104B60000837BD4680BD00BFE4070020249100083F
:104B70008484000880B582B000AF786039600A4B49
:104B80001B6C002B04D18F2208490948FDF7B8FFA0
:104B9000054B1B6C5B683A6879680348984700BF0F
:104BA0000837BD4680BD00BFE407002030910008F3
:104BB0008484000880B582B000AF7860094B1B6C1C
:104BC000002B04D1962208490848FDF799FF054BB0
:104BD0001B6C9B687968034898470346184608375A
:104BE000BD4680BDE4070020409100088484000891
:104BF00080B586B000AFF860B9607A60FB68002BC2
:104C000004D1D32215491648FDF77AFF7B687B61F2
:104C100016E0FB681B6CDB68F868984738613B69F5
:104C2000B3F1FF3F10D03B69DAB2BB681A70BB68C2
:104C30000133BB607B68013B7B603B690A2B05D07D
:104C40007B68002BE5D102E000BF00E000BF7A697D
:104C50007B68D31A18461837BD4680BD9C91000862
:104C60009C84000880B586B000AFF860B9607A60B7
:104C7000FB68002B04D1E72217491848FDF740FFD5
:104C80007B687B611DE0BB681B780A2B0BD1FB683E
:104C90001B8B03F04003002B05D0FB681B6C9B684B
:104CA0000D21F8689847FB681B6C9B68BA681278FE
:104CB0001146F8689847BB680133BB607B68013BCD
:104CC0007B607B68002BDED17A697B68D31A18463B
:104CD0001837BD4680BD00BFCC9100089C840008F9
:104CE00080B588B000AFF860B9607A60FB68002BCF
:104CF00005D14FF483722D492D48FDF701FF7B68E4
:104D0000FB61FB68DB6CBB61BB69002B44D14FF4DA
:104D1000857226492748FDF7F3FE3DE0FBF798FA38
:104D20007861BB69DA88BB699B889A4207D1BB6905
:104D30009B68002B03D17869FBF78EFA2FE0BB69E3
:104D40001B68BA69D28813441B783B61BB69DB8856
:104D500001339AB2BB69DA80BB69DA88FB689B6C65
:104D6000C3F38F239BB29A4202D3BB690022DA803D
:104D7000BB699B68012B02D1BB6900229A607869EC
:104D8000FBF76AFA3B69DAB2BB681A70BB68013399
:104D9000BB607B68013B7B607B68002BBED1FA69FE
:104DA0007B68D31A18462037BD4680BD8C91000819
:104DB0009C840008B084000880B586B000AFF8601D
:104DC000B9607A60FB68002B05D14FF49B721B49D8
:104DD0001B48FDF795FE7B687B61FB681B6D3B61A3
:104DE0003B69002B1FD14FF49D7214491548FDF704
:104DF00087FE18E0FB681B6C9B68BA681278114646
:104E0000F86898470346B3F1FF3F06D13B694FF07E
:104E1000FF31184600F0F8FB05E0BB680133BB60CA
:104E20007B68013B7B607B68002BE3D17A697B6800
:104E3000D31A18461837BD4680BD00BFBC91000884
:104E40009C840008C484000880B500AF084B1B6830
:104E5000002B0BD10748FDF713FE0748FDF710FEA6
:104E60000648FDF70DFE024B01221A6000BF80BD0F
:104E700028080020D4840008E08400084485000845
:104E800080B584B000AF78600023FB607B68002BA6
:104E900005D140F22A220F490F48FDF731FE7B6809
:104EA000BB60BB680022DA64BB6800221A65BB687D
:104EB0001B6C1B68002B08D0BB681B6C1B68BA6896
:104EC00044321146B8689847F860FB6818461037B6
:104ED000BD4680BD4C9100084885000880B586B06D
:104EE00000AF78600B467B800023FB827B68002B41
:104EF00005D140F23D2278497848FDF701FE7B68F4
:104F00003B617B8803F40073002B08D07B68DB8A4D
:104F100003F40073002B02D16FF00703D8E07B8805
:104F200003F40063002B08D07B68DB8A03F4006382
:104F3000002B02D16FF00703CAE07B8803F4807373
:104F4000002B08D07B68DB8A03F48073002B02D12E
:104F50006FF00703BCE07B8803F48063002B08D06C
:104F60007B68DB8A03F48063002B02D16FF00703B8
:104F7000AEE07B8803F04003002B05D17B681B8BE0
:104F800003F04003002B01D04023FB827B88DBB27F
:104F90009AB27B681A833B69DB6C002B47D17B8814
:104FA00003F48073002B3ED03B699B6CC3F38F23CB
:104FB0009BB20C331846FDF7D5FEF860FB68002B5A
:104FC00005D14FF4177244494548FDF799FDFB6838
:104FD00003F10C02FB681A60FB6818683B699B6C64
:104FE000C3F38F239BB21A460021FDF701F8FB683B
:104FF00000229A80FB680022DA80FB6800229A6017
:105000003B69FA68DA647B681B8B43F480739AB25D
:105010007B681A833B691B6C5B684FF480721021BC
:10502000386998470FE03B690022DA640BE07B881F
:1050300003F48073002B06D07B681B8B43F48073D2
:105040009AB27B681A833B691B6D002B2CD17B883D
:1050500003F48063002B23D00C20FDF783FEB8609F
:10506000BB68002B05D140F29B221B491D48FDF770
:1050700047FDBB68184600F0A5FA3B69BA681A6597
:105080007B681B8B43F480639AB27B681A833B690D
:105090001B6C5B684FF480621021386998470FE001
:1050A0003B6900221A650BE07B8803F48063002BC8
:1050B00006D07B681B8B43F480639AB27B681A83AB
:1050C0007B681A8BFB8A13439AB27B681A8300238E
:1050D00018461837BD4680BD5C9100084885000819
:1050E000B08400085885000880B586B000AF7860AD
:1050F0007B68002B05D140F2CE222F492F48FDF7C7
:10510000FFFC7B687B617B689B7E012B01D90023C0
:105110004EE07B681B8B03F48073002B20D07B69EF
:10512000DB6C3B613B69002B05D140F2D92222495F
:105130002348FDF7E5FC3869FDF77CFF7B69002219
:10514000DA647B681B8B23F480739AB27B681A83C2
:105150007B691B6C5B684FF48072112178699847FA
:105160007B681B8B03F48063002B20D07B691B6D55
:10517000FB60FB68002B05D140F2FF220E4911486D
:10518000FDF7BEFCF868FDF755FF7B6900221A6544
:105190007B681B8B23F480639AB27B681A837B69DC
:1051A0001B6C5B684FF4806211217869984700237B
:1051B00018461837BD4680BD6C9100084885000828
:1051C000B08400085885000880B586B000AFF8604C
:1051D000B9607A603B60FB68002B05D140F21E325B
:1051E00011491248FDF78CFC3B68002B01D10023CC
:1051F00016E0FB687B61FB681B8B03F48073002B5C
:1052000007D03B681A4679687869FFF769FD03465D
:1052100006E03B681A4679687869FFF7E9FC0346BF
:1052200018461837BD4680BD7C91000848850008A7
:1052300080B586B000AFF860B9607A603B60FB680B
:10524000002B05D14FF44E7211491248FDF758FC5E
:105250003B68002B01D1002316E0FB687B61FB68F3
:105260001B8B03F48063002B07D03B681A467968D8
:105270007869FFF7A1FD034606E03B681A467968A6
:105280007869FFF7EFFC034618461837BD4680BD26
:10529000AC9100084885000880B588B000AFF86080
:1052A000B9607A600023FB61FB68002B05D140F2F6
:1052B000B5322B492B48FDF723FCFB68BB61BB686B
:1052C000022B04D0032B12D0012B08D038E0FB684E
:1052D000DB8A43F020039AB2FB68DA823AE0FB688B
:1052E000DB8A23F020039AB2FB68DA8232E07B6823
:1052F000002B2ED07B687B617B695B68C3F38F23B7
:105300009AB2BB699B6CC3F38F239BB29A4205D0C0
:10531000BB699B7E002B01D007231CE0BB697A6927
:10532000443392E8030083E80300BB699B7E002BB3
:105330000FD0BB691B6C1B687968B869984708E097
:10534000BB691B6C5B687A68B968B8699847F86193
:1053500000E000BFFB6918462037BD4680BD00BF96
:10536000DC9100084885000880B586B000AFF86081
:10537000B9607A603B60FB68002B05D140F2614266
:1053800018491948FDF7BCFBFB687B617B6900226B
:105390001A757B690022DA617B6900221A627B69D7
:1053A000124A5A627B69124A9A627B69114ADA622E
:1053B0007B69114A1A637B69104A5A637B69104AF8
:1053C0009A637B693A68DA637B689BB21A46B9686C
:1053D0007869FCF7F6F838613B6918461837BD461E
:1053E00080BD00BFF09100089C840008814E000839
:1053F000DD4E0008E9500008C9510008315200088C
:105400009952000880B588B000AF786039603B6879
:10541000DBB2012B03D0022B00F088808FE04FF02D
:10542000FF33FB617B68DB6CBB61BB69002B05D183
:1054300040F28D4244494548FDF762FB7B681B6C96
:10544000DB6878689847F861FB69B3F1FF3F3DD0AE
:10545000FAF7FEFE7861BB691B68BA69928813444B
:10546000FA69D2B21A70BB699B8801339AB2BB69E0
:105470009A80BB699A887B689B6CC3F38F239BB22D
:105480009A4202D3BB6900229A80BB699A88BB69A1
:10549000DB889A4216D1BB69DB8801339AB2BB69BB
:1054A000DA80BB6901229A60BB69DA887B689B6CF1
:1054B000C3F38F239BB29A4202D3BB690022DA80E6
:1054C000FFF7C2FC7869FAF7C7FEB7E700BF7B6851
:1054D000DB69002B32D0FAF7BBFE7861BB699A8892
:1054E000BB69DB889A4206D3BB699B881A46BB69B5
:1054F000DB88D31A0CE07B689B6CC3F38F239BB2D1
:105500001A46BB69DB881946BB699B88CB1AD31A3C
:105510003B617869FAF7A0FE3B69002B0ED07B68EF
:10552000DB697A6839691046984707E07B681B6D2C
:10553000FB60FB68184600F0E5F800E000BF00BF24
:105540002037BD4680BD00BF08920008B084000827
:1055500080B483B000AF78607B687A685A607B68FB
:105560005A687B681A6000BF0C37BD4680BC704724
:1055700080B483B000AF786039607B685B683A685C
:105580001A607B685A683B685A607B683A685A6060
:105590003B687A681A6000BF0C37BD4680BC704714
:1055A00080B483B000AF78607B681A687B689A42E9
:1055B0000CBF01230023DBB218460C37BD4680BC6C
:1055C0007047000080B584B000AF78607B68002B26
:1055D00004D115220A490B48FDF792FAFAF738FE72
:1055E000F8607B6800221A607B6804331846FFF776
:1055F000AFFFF868FAF730FE00BF1037BD4680BD38
:105600001C9200086C85000880B586B000AF7860F9
:1056100039607B68002B04D1242235493548FDF7D9
:105620006FFA00237B61FEF7F9FAF860FAF710FED3
:1056300038617B681B68012B4FD07B6804331846A8
:10564000FFF7AEFF0346002B04D12D2228492A483C
:10565000FDF756FA3B68002B03D16FF001037B6125
:105660003EE0FB6800221A63F868FEF7F5FB7B68F2
:105670001A1DFB68143319461046FFF779FFFAF735
:10568000E7FDB860FCF780FC0346002B08D0184902
:105690001A48FDF7F5F9402215491948FDF730FA87
:1056A000B868FAF7D9FD3B68002B0BDDFB684C337B
:1056B0003A4600211846FEF7FDFEFB684C331846BB
:1056C000FEF7B0FD3869FAF7C7FDFEF74BF8FB6847
:1056D0001B6B7B61FAF7BCFD38617B6800221A60A6
:1056E0003869FAF7B9FD7B6918461837BD4680BDA1
:1056F000309200086C85000884850008B485000895
:10570000DC85000880B584B000AF78607B68002B32
:1057100004D1642215491648FDF7F2F97B681B682D
:10572000012B1ED0FAF794FDF8607B6801221A6005
:105730007B6804331846FFF733FF0346002B0CD178
:105740007B685B68143BBB60B868FEF7D9FBF86800
:10575000FAF782FDFEF706F804E0F868FAF77CFD38
:1057600000E000BF1037BD4680BD00BF4492000876
:105770006C85000880B500AF204B1B6893F8213082
:1057800003F00203DBB2002B04D11D4B00221A7080
:105790001B4B30E01B4B1B68002B08D0194B1B68C0
:1057A00080221946164801F02BFE154B23E001F02C
:1057B00095FA0346002B07D0114B134A92E80300D9
:1057C00018600433197009E00D4B104A92E8030089
:1057D00018600433198002330A0C1A70084801F06B
:1057E00091FD03461A46064B134409491A460B46D7
:1057F0001B881380024B184680BD00BF4C0A002056
:10580000400800203C080020E0850008E8850008EA
:10581000F085000880B582B000AF78600C4B1B6843
:10582000002B04D1A3220B490B48FDF769F9084B63
:105830001A687B68DBB203F00103D9B292F8213019
:1058400061F3410382F8213000BF0837BD4680BDB7
:105850004C0A002058920008F485000880B582B0F8
:1058600000AF0023FB71114B1B68002B0CD1AF2242
:105870000F491048FDF744F906E00C4B1B684FF048
:10588000FF311846FCF740FA084B1B68D3F80C02AE
:10589000FA1D01234FF0FF31FBF7E2FF0346012B16
:1058A000EBD1FB7918460837BD4680BD4C0A002075
:1058B00070920008F485000880B582B000AF78606F
:1058C0003960094B1B68002B04D1BE2207490848E8
:1058D000FDF716F9044B1B681846FCF7C5FA0023C0
:1058E00018460837BD4680BD4C0A0020809200084B
:1058F000F485000880B584B000AF78600023FB60B9
:105900002D4B1B68002B04D1D1222C492C48FDF7CC
:10591000F7F87868FBF780FEF860FB68002B04D18D
:1059200079682848FDF7ACF842E0234B1B68D3F8B0
:105930000C22FB689A423AD040F24311F868FBF718
:10594000B3FE0346002B33D11B4B1B68D3F80C323C
:10595000002B0ED0184B1B68D3F80C321846FBF7FF
:1059600031FF154B1B68D3F80C3200211846FBF7AA
:10597000FFFF114B1B6803F5DB7350220021184613
:1059800001F072FC0C4B1A680B4B1B680021A3F84A
:105990000612B3F80632A2F80832074B1B68FA6801
:1059A000C3F80C220849F868FBF7E2FF00E000BFEB
:1059B0001037BD4680BD00BF4C0A00209092000801
:1059C000F485000808860008B958000880B582B040
:1059D00000AF78600B48FDF753F801F07FF90346FC
:1059E000012B02D1786801F09FFBFFF7C3FE03464D
:1059F0007A6819460448FDF743F800BF0837BD46EA
:105A000080BD00BF288600082C86000880B582B0C3
:105A100000AF78600848FDF733F8FFF7ABFE0146AA
:105A20007B6803F5DB731A460448FDF729F8002369
:105A300018460837BD4680BD348600082C8600080D
:105A400080B584B000AF78607B68B3F80632002B75
:105A500000F09D807B689B8C042B51D97B6803F5FB
:105A6000B3707B6803F5DB735022194601F0CCFB61
:105A70000346002B00F08B800023FB6019E0FA68DE
:105A800013469B0013441B0120337A681344981D6E
:105A9000FB685A1C13469B0013441B0120337A6891
:105AA0001344063350221946FAF752FCFB680133BF
:105AB000FB60FB68032BE2DDFA6813469B0013448E
:105AC0001B0120337A681344063350220021184604
:105AD00001F0CAFBFA6813469B0013441B012033F4
